1USEX0000343088DAL0160194          042007   00000470180+               000000DAL0160194                                   000000000               US_OD_GLOBAL_SOURCING         N                                                                         
2USEX0000343088DAL0160194          042007001ITEM           00000470180+                                               00001100000900040002180010TOTAL INVOICED FEES                                                                                       
1USEX000035071130001               053107   00051386110+               00000030001                                        000000000               US_OD_GLOBAL_SOURCING         N                                                                         
2USEX000035071130001               053107001ITEM           00000176206+                                               00001ASRET0909030005010070MISC. INVOICED AMT.                                                                                       
2USEX000035071130001               053107002ITEM           00051209904+                                               00001100000900040002180010TOTAL INVOICED FEES                                                                                       
3AP_EXPENSE_NA_GSS            2007-06-1810:31:0400000000200000051856290+                                                                                                                                                                                  